:020000040800F2
:1000000000000520E556000825530008335300087A
:10001000395300083F530008455300080000000012
:100020000000000000000000000000004B5300082A
:10003000595300080000000067530008755300087A
:100040003557000835570008355700083557000860
:100050003557000835570008355700083557000850
:100060003557000835570008355700083557000840
:100070003557000835570008355700083557000830
:100080003557000835570008355700083557000820
:100090003557000835570008355700083557000810
:1000A0003557000835570008355700083557000800
:1000B00035570008355700083557000835570008F0
:1000C00035570008355700083557000835570008E0
:1000D0003557000835570008355700088153000888
:1000E00035570008355700083557000835570008C0
:1000F00035570008355700083557000835570008B0
:10010000355700083557000835570008355700089F
:10011000355700083557000835570008355700088F
:10012000355700083557000835570008355700087F
:10013000355700083557000835570008355700086F
:10014000355700083557000835570008355700085F
:10015000355700083557000835570008355700084F
:10016000355700083557000835570008355700083F
:1001700035570008355700083557000800000000C3
:10018000355700083557000835570008355700081F
:10019000355700083557000835570008355700080F
:1001A00035570008355700083557000835570008FF
:1001B00035570008355700083557000835570008EF
:0801C00035570008355700080F
:1001D00010B5054C237833B9044B13B10448AFF381
:1001E00000800123237010BDDC010020000000000E
:1001F000749A000808B5034B1BB103490348AFF3D9
:10020000008008BD00000000E0010020749A000892
:10021000034613F8012B002AFBD1181A0138704746
:1002200001F0FF01102A2BDB10F0070F08D010F8A7
:10023000013B013A8B422DD010F0070F42B3F6D1AB
:10024000F0B441EA012141EA014122F007047FF0C4
:1002500000070023F0E80256083C85EA010586EA1B
:10026000010685FA47F5A3FA87F586FA47F6A5FA57
:1002700087F68EB9EED1F0BC01F0FF0102F0070263
:1002800032B110F8013B013A83EA010313B1F8D10E
:100290000020704701387047002D06BF35460338EF
:1002A000073815F0010F07D1013015F4807F02BF28
:1002B000013015F4C03F0130F0BC0138704700BF79
:1002C00081F0004102E000BF83F0004330B54FEA07
:1002D00041044FEA430594EA050F08BF90EA020F74
:1002E0001FBF54EA000C55EA020C7FEA645C7FEA07
:1002F000655C00F0E2804FEA5454D4EB5555B8BF2A
:100300006D420CDD2C4480EA020281EA030382EA9A
:10031000000083EA010180EA020281EA0303362D2C
:1003200088BF30BD11F0004F4FEA01314FF4801CFF
:100330004CEA113102D0404261EB410113F0004F11
:100340004FEA03334CEA133302D0524263EB4303C8
:1003500094EA050F00F0A780A4F10104D5F1200E66
:100360000DDB02FA0EFC22FA05F2801841F10001C1
:1003700003FA0EF2801843FA05F359410EE0A5F195
:1003800020050EF1200E012A03FA0EFC28BF4CF0C6
:10039000020C43FA05F3C01851EBE37101F000457C
:1003A00007D54FF0000EDCF1000C7EEB00006EEB89
:1003B0000101B1F5801F1BD3B1F5001F0CD3490813
:1003C0005FEA30004FEA3C0C04F101044FEA44526A
:1003D00012F5800F80F09A80BCF1004F08BF5FEAF1
:1003E000500C50F1000041EB045141EA050130BDD1
:1003F0005FEA4C0C404141EB010111F4801FA4F174
:100400000104E9D191F0000F04BF01460020B1FAC8
:1004100081F308BF2033A3F10B03B3F120020CDA00
:100420000C3208DD02F1140CC2F10C0201FA0CF0DE
:1004300021FA02F10CE002F11402D8BFC2F1200C43
:1004400001FA02F120FA0CFCDCBF41EA0C019040F9
:10045000E41AA2BF01EB0451294330BD6FEA040442
:100460001F3C1CDA0C340EDC04F11404C4F120022D
:1004700020FA04F001FA02F340EA030021FA04F33F
:1004800045EA030130BDC4F10C04C4F1200220FA96
:1004900002F001FA04F340EA0300294630BD21FAD4
:1004A00004F0294630BD94F0000F83F4801306BF9A
:1004B00081F480110134013D4EE77FEA645C18BF8E
:1004C0007FEA655C29D094EA050F08BF90EA020F25
:1004D00005D054EA000C04BF1946104630BD91EA1D
:1004E000030F1EBF0021002030BD5FEA545C05D120
:1004F0004000494128BF41F0004130BD14F580045F
:100500003CBF01F5801130BD01F0004545F0FE41D2
:1005100041F470014FF0000030BD7FEA645C1ABF07
:10052000194610467FEA655C1CBF0B46024650EA3E
:10053000013406BF52EA033591EA030F41F400216A
:1005400030BD00BF90F0000F04BF0021704730B5F0
:100550004FF4806404F132044FF000054FF00001C5
:1005600050E700BF90F0000F04BF0021704730B586
:100570004FF4806404F1320410F0004548BF40425B
:100580004FF000013EE700BF42004FEAE2014FEAB0
:1005900031014FEA02701FBF12F07F4393F07F4F8B
:1005A00081F06051704732F07F4208BF704793F08E
:1005B0007F4F04BF41F40021704730B54FF46074A1
:1005C00001F0004521F000411CE700BF50EA0102A4
:1005D00008BF704730B54FF000050AE050EA01024D
:1005E00008BF704730B511F0004502D5404261EBBD
:1005F00041014FF4806404F132045FEA915C3FF4FE
:10060000D8AE4FF003025FEADC0C18BF03325FEA9A
:10061000DC0C18BF033202EBDC02C2F1200300FA4B
:1006200003FC20FA02F001FA03FE40EA0E0021FA70
:1006300002F11444BDE600BF70B54FF0FF0C4CF45E
:10064000E06C1CEA11541DBF1CEA135594EA0C0F10
:1006500095EA0C0F00F0DEF82C4481EA030621EA4B
:100660004C5123EA4C5350EA013518BF52EA033586
:1006700041F4801143F4801338D0A0FB02CE4FF038
:100680000005E1FB02E506F00042E0FB03E54FF068
:100690000006E1FB03569CF0000F18BF4EF0010E60
:1006A000A4F1FF04B6F5007F64F5407404D25FEA5C
:1006B0004E0E6D4146EB060642EAC62141EA55510F
:1006C0004FEAC52040EA5E504FEACE2EB4F1FD0C51
:1006D00088BFBCF5E06F1ED8BEF1004F08BF5FEACF
:1006E000500E50F1000041EB045170BD06F0004681
:1006F00046EA010140EA020081EA0301B4EB5C042E
:10070000C2BFD4EB0C0541EA045170BD41F4801125
:100710004FF0000E013C00F3AB8014F1360FDEBF4A
:10072000002001F0004170BDC4F10004203C35DA26
:100730000C341BDC04F11404C4F1200500FA05F3A9
:1007400020FA04F001FA05F240EA020001F000424A
:1007500021F0004110EBD37021FA04F642EB0601C0
:100760005EEA430E08BF20EAD37070BDC4F10C04EA
:10077000C4F1200500FA04F320FA05F001FA04F2AE
:1007800040EA020001F0004110EBD37041F100019A
:100790005EEA430E08BF20EAD37070BDC4F12005A5
:1007A00000FA05F24EEA020E20FA04F301FA05F20D
:1007B00043EA020321FA04F001F0004121FA04F2B5
:1007C00020EA020000EBD3705EEA430E08BF20EA85
:1007D000D37070BD94F0000F0FD101F000464000BF
:1007E00041EB010111F4801F08BF013CF7D041EA41
:1007F000060195F0000F18BF704703F00046520045
:1008000043EB030313F4801F08BF013DF7D043EA15
:100810000603704794EA0C0F0CEA135518BF95EACB
:100820000C0F0CD050EA410618BF52EA4306D1D152
:1008300081EA030101F000414FF0000070BD50EA71
:10084000410606BF1046194652EA430619D094EAFB
:100850000C0F02D150EA013613D195EA0C0F05D1E5
:1008600052EA03361CBF104619460AD181EA030139
:1008700001F0004141F0FE4141F470014FF00000F1
:1008800070BD41F0FE4141F4780170BD70B54FF08C
:10089000FF0C4CF4E06C1CEA11541DBF1CEA13550C
:1008A00094EA0C0F95EA0C0F00F0A7F8A4EB0504EE
:1008B00081EA030E52EA03354FEA013100F08880E5
:1008C0004FEA03334FF0805545EA131343EA1263AE
:1008D0004FEA022245EA111545EA10654FEA002663
:1008E0000EF000419D4208BF964244F1FD0404F51C
:1008F000407402D25B084FEA3202B61A65EB030578
:100900005B084FEA32024FF480104FF4002CB6EB34
:10091000020E75EB030E22BFB61A754640EA0C00B4
:100920005B084FEA3202B6EB020E75EB030E22BFF4
:10093000B61A754640EA5C005B084FEA3202B6EB35
:10094000020E75EB030E22BFB61A754640EA9C00F4
:100950005B084FEA3202B6EB020E75EB030E22BFC4
:10096000B61A754640EADC0055EA060E18D04FEA82
:10097000051545EA16754FEA06164FEAC30343EA22
:1009800052734FEAC2025FEA1C1CC0D111F4801FEF
:100990000BD141EA00014FF000004FF0004CB6E7E8
:1009A00011F4801F04BF01430020B4F1FD0C88BF87
:1009B000BCF5E06F3FF6AFAEB5EB030C04BFB6EB92
:1009C000020C5FEA500C50F1000041EB045170BD85
:1009D0000EF0004E4EEA113114EB5C04C2BFD4EBB2
:1009E0000C0541EA045170BD41F480114FF0000E36
:1009F000013C90E645EA060E8DE60CEA135594EAB2
:100A00000C0F08BF95EA0C0F3FF43BAF94EA0C0FB4
:100A10000AD150EA01347FF434AF95EA0C0F7FF429
:100A200025AF104619462CE795EA0C0F06D152EA7D
:100A300003353FF4FDAE1046194622E750EA410661
:100A400018BF52EA43067FF4C5AE50EA41047FF472
:100A50000DAF52EA43057FF4EBAE12E74FF0FF3CD7
:100A600006E000BF4FF0010C02E000BF4FF0010CA8
:100A70004DF804CD4FEA410C7FEA6C5C4FEA430C21
:100A800018BF7FEA6C5C1BD001B050EA410C0CBF70
:100A900052EA430C91EA030F02BF90EA020F0020D2
:100AA000704710F1000F91EA030F58BF994208BF39
:100AB00090422CBFD8176FEAE37040F001007047F6
:100AC0004FEA410C7FEA6C5C02D150EA013C07D14D
:100AD0004FEA430C7FEA6C5CD6D152EA033CD3D098
:100AE0005DF8040B704700BF8446104662468C4692
:100AF0001946634600E000BF01B5FFF7B7FF0028C5
:100B000048BF10F1000F01BD4DF808EDFFF7F4FFED
:100B10000CBF012000205DF808FB00BF4DF808ED78
:100B2000FFF7EAFF34BF012000205DF808FB00BF9B
:100B30004DF808EDFFF7E0FF94BF012000205DF8BD
:100B400008FB00BF4DF808EDFFF7CEFF94BF012072
:100B500000205DF808FB00BF4DF808EDFFF7C4FF6B
:100B600034BF012000205DF808FB00BF4FEA410CB4
:100B70007FEA6C5C02D150EA013C0AD14FEA430C97
:100B80007FEA6C5C02D152EA033C02D14FF00000D4
:100B900070474FF0010070474FEA410212F5001212
:100BA00015D211D56FF47873B3EB625212D94FEAB4
:100BB000C12343F0004343EA505311F0004F23FA9E
:100BC00002F018BF404270474FF00000704750EAF3
:100BD000013005D111F0004008BF6FF000407047B0
:100BE0004FF00000704700BF4A0011D212F500120A
:100BF00011D20DD56FF47873B3EB62520ED44FEA75
:100C0000C12343F0004343EA505323FA02F07047F4
:100C10004FF00000704750EA013002D14FF0FF3032
:100C200070474FF0000070474FEA4102B2F1E043D5
:100C300024BFB3F5001CDCF1FE5C0DD901F0004CC3
:100C40004FEAC0024CEA5070B2F1004F40EB830013
:100C500008BF20F00100704711F0804F21D113F13F
:100C60003872BCBF01F00040704741F480114FEA78
:100C70005252C2F11802C2F1200C10FA0CF320FA01
:100C800002F018BF40F001004FEAC1234FEAD3231E
:100C900003FA0CFC40EA0C0023FA02F34FEA430388
:100CA000CCE77FEA625307D150EA01331EBF4FF011
:100CB000FE4040F44000704701F0004040F0FE402C
:100CC00040F40000704700BF53B94AB9002908BF7B
:100CD00000281CBF4FF0FF314FF0FF3000F072B919
:100CE000ADF1080C6DE904CE00F006F8DDF804E083
:100CF000DDE9022304B070472DE9F047089E044661
:100D00008846002B4BD18A42154667D9B2FA82F247
:100D10004AB1C2F1200701FA02F320FA07F7954021
:100D200047EA030894404FEA154E230CB8FBFEF740
:100D30001FFA85FC0EFB178843EA084307FB0CF1FA
:100D4000994209D9EB1807F1FF3080F01B819942D5
:100D500040F21881023F2B445B1AA4B2B3FBFEF0B1
:100D60000EFB103344EA034400FB0CFCA44509D9F4
:100D70002C1900F1FF3380F00781A44540F2048173
:100D800002382C4440EA0740A4EB0C0400271EB1B3
:100D9000D4400023C6E900433946BDE8F0878B42C2
:100DA00009D9002E00F0EB800027C6E90001384683
:100DB0003946BDE8F087B3FA83F7002F47D18B425D
:100DC00002D3824200F2FA80841A61EB030301200D
:100DD0009846002EE0D0C6E90048DDE702B9FFDE04
:100DE000B2FA82F2002A40F08F80491B4FEA154E7A
:100DF0001FFA85F80127B1FBFEFC230C0EFB1C112A
:100E000043EA014308FB0CF1994207D9EB180CF1B6
:100E1000FF3002D2994200F2CD808446591AA3B223
:100E2000B1FBFEF00EFB101443EA044408FB00F88B
:100E3000A04507D92C1900F1FF3302D2A04500F2DA
:100E4000B6801846A4EB080440EA0C409FE7C7F1BF
:100E5000200CBB4022FA0CFE4EEA030E01FA07F406
:100E600020FA0CF521FA0CF34FEA1E482543B3FB98
:100E7000F8F92C0C08FB19331FFA8EFA44EA0343E5
:100E800009FB0AF49C4202FA07F200FA07F10BD9B7
:100E90001EEB030309F1FF3080F087809C4240F293
:100EA0008480A9F1020973441B1BADB2B3FBF8F0B7
:100EB00008FB103345EA034400FB0AFAA24508D9AF
:100EC0001EEB040400F1FF336BD2A24569D902384E
:100ED000744440EA0940A0FB0289A4EB0A044C4593
:100EE000C2464B4654D351D0002E69D0B1EB0A050F
:100EF00064EB030404FA0CFCFD40FC404CEA0505DD
:100F0000C6E90054002747E7C2F1200320FA03F79F
:100F1000954001FA02F021FA03F34FEA154E3843E7
:100F2000010CB3FBFEF71FFA85F80EFB173341EAFD
:100F3000034107FB08F38B4204FA02F407D969184E
:100F400007F1FF3C2FD28B422DD9023F2944CB1A07
:100F500081B2B3FBFEF00EFB103341EA034100FB0C
:100F600008F38B4207D9691800F1FF3C17D28B4276
:100F700015D902382944C91A40EA07473BE73746E2
:100F8000304609E70746E7E61846FBE64145ABD29F
:100F9000B8EB020A69EB0E0201381346A4E760467B
:100FA000E9E7184695E76746D1E781467CE70238CE
:100FB0002C4447E7ACF1020C2B442FE7384608E7F6
:100FC0003746E9E6704700BF80B500AF032000F068
:100FD0004BF9002000F006F804F080F900231846D1
:100FE00080BD000080B582B000AF7860124B1A68F7
:100FF000124B1B7819464FF47A73B3FBF1F3B2FB33
:10100000F3F3184600F065F90346002B01D00123E5
:101010000EE07B680F2B0AD8002279684FF0FF3072
:1010200000F02DF9064A7B681360002300E00123DD
:1010300018460837BD4680BD080000200400002087
:101040000000002080B400AF064B1B781A46064B08
:101050001B681344044A136000BFBD465DF8047B5F
:10106000704700BF040000200802002080B400AFD9
:10107000034B1B681846BD465DF8047B704700BFF4
:101080000802002080B584B000AF7860FFF7EEFF63
:10109000B8607B68FB60FB68B3F1FF3F05D0094B8C
:1010A0001B781A46FB681344FB6000BFFFF7DEFFA6
:1010B0000246BB68D31AFA689A42F7D800BF1037C5
:1010C000BD4680BD0400002080B485B000AF7860CC
:1010D0007B6803F00703FB600B4BDB68BB60BA68FF
:1010E0004FF6FF031340BB60FB681A02BB681A434C
:1010F000064B1343BB60044ABB68D36000BF143780
:10110000BD465DF8047B704700ED00E00000FA0585
:1011100080B400AF044BDB681B0A03F007031846DA
:10112000BD465DF8047B704700ED00E080B483B0FD
:1011300000AF0346FB7197F90730002B0BDBFB79FF
:1011400003F01F02074997F907305B09012000FAF5
:1011500002F241F8232000BF0C37BD465DF8047B46
:10116000704700BF00E100E080B483B000AF0346E9
:101170003960FB7197F90730002B0ADB3B68DAB264
:101180000C4997F907301201D2B20B4483F80023BF
:101190000AE03B68DAB20849FB7903F00F03043B2D
:1011A0001201D2B20B441A7600BF0C37BD465DF86F
:1011B000047B704700E100E000ED00E080B489B0FE
:1011C00000AFF860B9607A60FB6803F00703FB6169
:1011D000FB69C3F10703042B28BF0423BB61FB6930
:1011E0000433062B02D9FB69033B00E000237B613B
:1011F0004FF0FF32BB6902FA03F3DA43BB681A40CF
:101200007B699A404FF0FF317B6901FA03F3D943C0
:101210007B680B40134318462437BD465DF8047BBA
:101220007047000080B582B000AF78607B68013BFA
:10123000B3F1807F01D301230FE00A4A7B68013BB1
:1012400053600F214FF0FF30FFF78EFF054B002258
:101250009A60044B07221A60002318460837BD46DF
:1012600080BD00BF10E000E080B582B000AF7860C4
:101270007868FFF729FF00BF0837BD4680BD80B5FD
:1012800086B000AF0346B9607A60FB7300237B61D0
:10129000FFF73EFF78617A68B9687869FFF78EFFDB
:1012A000024697F90F3011461846FFF75DFF00BF61
:1012B0001837BD4680BD80B582B000AF0346FB71D4
:1012C00097F907301846FFF731FF00BF0837BD46D2
:1012D00080BD80B582B000AF78607868FFF7A2FF6C
:1012E000034618460837BD4680BD80B483B000AFC2
:1012F00078607B6893F83530DBB2022B04D07B68D2
:1013000080225A6501230CE07B68052283F8352092
:101310007B681B681A687B681B6822F001021A60F0
:10132000002318460C37BD465DF8047B704700006B
:1013300080B489B000AF786039600023FB6100237E
:101340007B6100233B610023BB610023FB6175E1EE
:101350000122FB6902FA03F37B613B681B687A692F
:1013600013403B613A697B699A4240F064813B6873
:101370005B68022B03D03B685B68122B23D1FB69AF
:10138000DA087B68083253F82230BB61FB6903F04E
:1013900007039B000F2202FA03F3DB43BA691340F1
:1013A000BB613B681A69FB6903F007039B0002FA03
:1013B00003F3BA691343BB61FB69DA087B6808323F
:1013C000B96943F822107B681B68BB61FB695B004D
:1013D000032202FA03F3DB43BA691340BB613B68A3
:1013E0005B6803F00302FB695B0002FA03F3BA696E
:1013F0001343BB617B68BA691A603B685B68012B69
:101400000BD03B685B68022B07D03B685B68112BF5
:1014100003D03B685B68122B30D17B689B68BB6153
:10142000FB695B00032202FA03F3DB43BA69134052
:10143000BB613B68DA68FB695B0002FA03F3BA69D7
:101440001343BB617B68BA699A607B685B68BB6168
:101450000122FB6902FA03F3DB43BA691340BB6163
:101460003B685B681B0903F00102FB6902FA03F3A6
:10147000BA691343BB617B68BA695A607B68DB68F1
:10148000BB61FB695B00032202FA03F3DB43BA6929
:101490001340BB613B689A68FB695B0002FA03F387
:1014A000BA691343BB617B68BA69DA603B685B6801
:1014B00003F08053002B00F0BE80654B5B6C644AE8
:1014C00043F480435364624B5B6C03F48043FB60E2
:1014D000FB68604AFB699B08023352F82330BB610A
:1014E000FB6903F003039B000F2202FA03F3DB43C3
:1014F000BA691340BB617B68574A934237D07B6817
:10150000564A934231D07B68554A93422BD07B6830
:10151000544A934225D07B68534A93421FD07B683C
:10152000524A934219D07B68514A934213D07B6848
:10153000504A93420DD07B684F4A934207D07B6854
:101540004E4A934201D1092312E00A2310E00823F6
:101550000EE007230CE006230AE0052308E004233D
:1015600006E0032304E0022302E0012300E000235D
:10157000FA6902F0030292009340BA691343BB6117
:101580003449FB699B080233BA6941F823203C4B7C
:101590001B68BB613B69DB43BA691340BB613B68B5
:1015A0005B6803F48033002B03D0BA693B691343B3
:1015B000BB61334ABB691360314B5B68BB613B69FC
:1015C000DB43BA691340BB613B685B6803F40033DB
:1015D000002B03D0BA693B691343BB61284ABB693E
:1015E0005360274B9B68BB613B69DB43BA6913407F
:1015F000BB613B685B6803F48013002B03D0BA69BE
:101600003B691343BB611E4ABB6993601C4BDB689B
:10161000BB613B69DB43BA691340BB613B685B68F4
:1016200003F40013002B03D0BA693B691343BB6179
:10163000134ABB69D360FB690133FB61FB690F2B64
:101640007FF686AE00BF2437BD465DF8047B704749
:10165000003802400038014000000240000402400F
:1016600000080240000C024000100240001402403A
:1016700000180240001C02400020024000240240EA
:10168000003C014080B483B000AF78600B467B80A3
:1016900013467B707B78002B03D07A887B689A6135
:1016A00003E07B881A047B689A6100BF0C37BD4653
:1016B0005DF8047B704780B483B000AF78600B4660
:1016C0007B807B685A697B881A407B889A4204D168
:1016D0007B881A047B689A6102E07A887B689A6149
:1016E00000BF0C37BD465DF8047B704780B582B003
:1016F00000AF78607B68002B01D101237FE07B681D
:1017000093F84130DBB2002B06D17B68002283F8CE
:101710004020786803F036FC7B68242283F841205F
:101720007B681B681A687B681B6822F001021A60DC
:101730007B685A687B681B6822F070621A617B685C
:101740001B689A687B681B6822F400429A607B6879
:10175000DB68012B07D17B689A687B681B6842F4C1
:1017600000429A6006E07B689A687B681B6842F4D6
:1017700004429A607B68DB68022B04D17B681B689B
:101780004FF400625A607B681B6859687B681A686E
:101790001D4B0B4353607B681B68DA687B681B68D2
:1017A00022F40042DA607B681A697B685B6942EA6E
:1017B00003017B689B691A027B681B680A43DA6035
:1017C0007B68D9697B681A6A7B681B680A431A6060
:1017D0007B681B681A687B681B6842F001021A600C
:1017E0007B6800225A647B68202283F841207B6852
:1017F00000221A637B68002283F8422000231846E7
:101800000837BD4680BD00BF0080000280B588B0AB
:1018100002AFF8607A601A460B467B8113463B8123
:10182000FB6893F84130DBB2202B40F0DA80FB6894
:1018300093F84030012B01D10223D3E0FB68012251
:1018400083F84020FFF712FC78617B69009319232D
:1018500001224FF40041F86800F0E6F90346002B3E
:1018600001D00123BEE0FB68212283F84120FB6800
:10187000102283F84220FB6800225A64FB687A68D1
:101880005A62FB683A895A85FB6800225A63FB68F2
:101890005B8D9BB2FF2B0ED9FB68FF221A85FB687C
:1018A0001B8DDAB27989514B00934FF08073F86841
:1018B00000F048FB6CE0FB685B8D9AB2FB681A8510
:1018C000FB681B8DDAB27989484B00934FF00073A7
:1018D000F86800F037FB5BE07A69396AF86800F075
:1018E000E3F90346002B01D001237BE0FB685B6A30
:1018F0001A78FB681B689A62FB685B6A5A1CFB6873
:101900005A62FB685B8D9BB2013B9AB2FB685A85B9
:10191000FB681B8D013B9AB2FB681A85FB685B8DE7
:101920009BB2002B34D0FB681B8D002B30D17B6920
:1019300000933B6A00228021F86800F075F90346A5
:10194000002B01D001234DE0FB685B8D9BB2FF2B88
:101950000ED9FB68FF221A85FB681B8DDAB27989E4
:10196000002300934FF08073F86800F0EBFA0FE06B
:10197000FB685B8D9AB2FB681A85FB681B8DDAB237
:101980007989002300934FF00073F86800F0DAFAC9
:10199000FB685B8D9BB2002B9ED17A69396AF8682F
:1019A00000F0C2F90346002B01D001231AE0FB68C6
:1019B0001B682022DA61FB681B685968FB681A689B
:1019C0000B4B0B405360FB68202283F84120FB68DF
:1019D000002283F84220FB68002283F84020002385
:1019E00000E0022318461837BD4680BD0020008065
:1019F00000E800FE80B588B002AFF8607A601A4651
:101A00000B467B8113463B81FB6893F84130DBB288
:101A1000202B40F0DB80FB6893F84030012B01D194
:101A20000223D4E0FB68012283F84020FFF71EFB6D
:101A300078617B690093192301224FF40041F86813
:101A400000F0F2F80346002B01D00123BFE0FB6851
:101A5000222283F84120FB68102283F84220FB6891
:101A600000225A64FB687A685A62FB683A895A8590
:101A7000FB6800225A63FB685B8D9BB2FF2B0ED97B
:101A8000FB68FF221A85FB681B8DDAB27989524BFD
:101A900000934FF08073F86800F054FA6DE0FB6833
:101AA0005B8D9AB2FB681A85FB681B8DDAB2798967
:101AB000494B00934FF00073F86800F043FA5CE084
:101AC0007A69396AF86800F06BF90346002B01D097
:101AD00001237CE0FB681B685A6AFB685B6AD2B230
:101AE0001A70FB685B6A5A1CFB685A62FB681B8DA4
:101AF000013B9AB2FB681A85FB685B8D9BB2013B88
:101B00009AB2FB685A85FB685B8D9BB2002B34D080
:101B1000FB681B8D002B30D17B6900933B6A002250
:101B20008021F86800F080F80346002B01D00123E3
:101B30004DE0FB685B8D9BB2FF2B0ED9FB68FF224B
:101B40001A85FB681B8DDAB27989002300934FF068
:101B50008073F86800F0F6F90FE0FB685B8D9AB2CD
:101B6000FB681A85FB681B8DDAB279890023009324
:101B70004FF00073F86800F0E5F9FB685B8D9BB2ED
:101B8000002B9DD17A69396AF86800F0CDF80346D8
:101B9000002B01D001231AE0FB681B682022DA61C8
:101BA000FB681B685968FB681A680C4B0B40536054
:101BB000FB68202283F84120FB68002283F8422042
:101BC000FB68002283F84020002300E0022318462F
:101BD0001837BD4680BD00BF0024008000E800FE2D
:101BE00080B483B000AF78607B681B689B6903F0AA
:101BF0000203022B03D17B681B6800229A627B6878
:101C00001B689B6903F00103012B07D07B681B68ED
:101C10009A697B681B6842F001029A6100BF0C3729
:101C2000BD465DF8047B704780B584B000AFF860B6
:101C3000B9603B601346FB7122E03B68B3F1FF3FA4
:101C40001ED0FFF713FA0246BB69D31A3A689A42CC
:101C500002D33B68002B13D1FB685B6C43F020027E
:101C6000FB685A64FB68202283F84120FB6800224D
:101C700083F84220FB68002283F8402001230FE014
:101C8000FB681B689A69BB681340BA689A420CBF2C
:101C900001230023DBB21A46FB799A42CDD0002300
:101CA00018461037BD4680BD80B584B000AFF860DF
:101CB000B9607A602CE07A68B968F86800F0DCF8FE
:101CC0000346002B01D001232AE0BB68B3F1FF3F9C
:101CD0001ED0FFF7CBF902467B68D31ABA689A4246
:101CE00002D3BB68002B13D1FB685B6C43F020026E
:101CF000FB685A64FB68202283F84120FB680022BD
:101D000083F84220FB68002283F84020012307E08B
:101D1000FB681B689B6903F00203022BCBD10023F5
:101D200018461037BD4680BD80B584B000AFF8605E
:101D3000B9607A6028E07A68B968F86800F09CF8C1
:101D40000346002B01D0012326E0FFF78FF902465E
:101D50007B68D31ABA689A4202D3BB68002B13D1AE
:101D6000FB685B6C43F02002FB685A64FB6820222E
:101D700083F84120FB68002283F84220FB680022A0
:101D800083F84020012307E0FB681B689B6903F090
:101D90002003202BCFD1002318461037BD4680BD2D
:101DA00080B584B000AFF860B9607A6055E07A68B9
:101DB000B968F86800F060F80346002B01D00123F1
:101DC00053E0FB681B689B6903F02003202B29D19B
:101DD000FB681B689B6903F00403042B05D1FB68B7
:101DE0001B8D002B01D000233FE0FB681B682022E5
:101DF000DA61FB681B685968FB681A681D4B0B4069
:101E00005360FB6800225A64FB68202283F841205B
:101E1000FB68002283F84220FB68002283F8402000
:101E2000012322E0FFF722F902467B68D31ABA6841
:101E30009A4202D3BB68002B0FD1FB685B6C43F066
:101E40002002FB685A64FB68202283F84120FB686B
:101E5000002283F84020012307E0FB681B689B6990
:101E600003F00403042BA2D1002318461037BD460B
:101E700080BD00BF00E800FE80B584B000AFF86010
:101E8000B9607A60FB681B689B6903F01003102B34
:101E900051D122E0BB68B3F1FF3F1ED0FFF7E6F857
:101EA00002467B68D31ABA689A4202D3BB68002BF9
:101EB00013D1FB685B6C43F02002FB685A64FB683B
:101EC000202283F84120FB68002283F84220FB682F
:101ED000002283F8402001232EE0FB681B689B69E9
:101EE00003F02003202BD5D1FB681B681022DA6198
:101EF000FB681B682022DA61F868FFF771FEFB6857
:101F00001B685968FB681A680D4B0B405360FB68EF
:101F10005B6C43F00402FB685A64FB68202283F880
:101F20004120FB68002283F84220FB68002283F8EE
:101F30004020012300E0002318461037BD4680BD35
:101F400000E800FE80B485B000AFF8607B600B460F
:101F50007B8113467B72FB681B685A68BB695B0D0B
:101F600003F480610D4B0B43DB4302EA03017B89E1
:101F7000C3F309027B7A1B0403F47F031A437B68D3
:101F80001A43BB691A43FB681B680A435A6000BFC7
:101F90001437BD465DF8047B704700BFFF63FF0345
:101FA00080B483B000AF786039607B6893F84130CB
:101FB000DBB2202B38D17B6893F84030012B01D164
:101FC000022332E07B68012283F840207B682422D0
:101FD00083F841207B681B681A687B681B6822F0C5
:101FE00001021A607B681B681A687B681B6822F410
:101FF00080521A607B681B6819687B681B683A68A6
:102000000A431A607B681B681A687B681B6842F089
:1020100001021A607B68202283F841207B6800223D
:1020200083F84020002300E0022318460C37BD4609
:102030005DF8047B704780B485B000AF786039608C
:102040007B6893F84130DBB2202B39D17B6893F861
:102050004030012B01D1022333E07B68012283F859
:1020600040207B68242283F841207B681B681A6823
:102070007B681B6822F001021A607B681B681B6882
:10208000FB60FB6823F47063FB603B681B02FA682B
:102090001343FB607B681B68FA681A607B681B68E7
:1020A0001A687B681B6842F001021A607B68202274
:1020B00083F841207B68002283F84020002300E061
:1020C000022318461437BD465DF8047B70470000B4
:1020D00080B400AF054B1B68044A43F4807313605F
:1020E00000BFBD465DF8047B704700BF0070004034
:1020F00080B586B000AF78600023FB757B68002B4D
:1021000001D101235CE27B681B6803F00103002B13
:1021100000F08780964B9B6803F00C03042B0CD0D7
:10212000934B9B6803F00C03082B12D1904B5B6818
:1021300003F48003B3F5800F0BD18D4B1B6803F4C0
:102140000033002B6CD07B685B68002B68D10123C7
:1021500036E27B685B68B3F5803F06D1844B1B6831
:10216000834A43F4803313602EE07B685B68002B66
:102170000CD17F4B1B687E4A23F4803313607C4B69
:102180001B687B4A23F4802313601DE07B685B6837
:10219000B3F5A02F0CD1764B1B68754A43F480230E
:1021A0001360734B1B68724A43F4803313600BE077
:1021B0006F4B1B686E4A23F4803313606C4B1B68B3
:1021C0006B4A23F4802313607B685B68002B13D079
:1021D000FEF74CFF386108E0FEF748FF02463B6916
:1021E000D31A642B01D90323EAE1614B1B6803F482
:1021F0000033002BF0D014E0FEF738FF386108E020
:10220000FEF734FF02463B69D31A642B01D903233E
:10221000D6E1574B1B6803F40033002BF0D100E0EC
:1022200000BF7B681B6803F00203002B69D0504B92
:102230009B6803F00C03002B0BD04D4B9B6803F005
:102240000C03082B1CD14A4B5B6803F48003002B62
:1022500016D1474B1B6803F00203002B05D07B68A7
:10226000DB68012B01D00123AAE1414B1B6823F05D
:10227000F8027B681B69DB003D4913430B6040E0BB
:102280007B68DB68002B23D0394B1B68384A43F04E
:1022900001031360FEF7EAFE386108E0FEF7E6FE90
:1022A00002463B69D31A022B01D9032388E1304B44
:1022B0001B6803F00203002BF0D02D4B1B6823F0AA
:1022C000F8027B681B69DB00294913430B6018E0A7
:1022D000274B1B68264A23F001031360FEF7C6FE56
:1022E000386108E0FEF7C2FE02463B69D31A022BB2
:1022F00001D9032364E11E4B1B6803F00203002B8A
:10230000F0D17B681B6803F00803002B38D07B6892
:102310005B69002B19D0164B5B6F154A43F0010324
:102320005367FEF7A3FE386108E0FEF79FFE024602
:102330003B69D31A022B01D9032341E10C4B5B6F9C
:1023400003F00203002BF0D01AE0094B5B6F084A40
:1023500023F001035367FEF789FE38610AE0FEF7B8
:1023600085FE02463B69D31A022B03D9032327E1DA
:1023700000380240944B5B6F03F00203002BEED158
:102380007B681B6803F00403002B00F0A4808E4BD5
:102390001B6C03F08053002B0DD18B4B1B6C8A4AB6
:1023A00043F080531364884B1B6C03F08053FB6035
:1023B000FB680123FB75854B1B6803F48073002BBE
:1023C00018D1824B1B68814A43F480731360FEF777
:1023D0004DFE386108E0FEF749FE02463B69D31A1C
:1023E000642B01D90323EBE0784B1B6803F4807363
:1023F000002BF0D07B689B68012B06D1724B1B6FC2
:10240000714A43F0010313672DE07B689B68002B42
:102410000CD16D4B1B6F6C4A23F0010313676A4BA1
:102420001B6F694A23F0040313671CE07B689B68F9
:10243000052B0CD1644B1B6F634A43F004031367F5
:10244000614B1B6F604A43F0010313670BE05E4B67
:102450001B6F5D4A23F0010313675B4B1B6F5A4AE6
:1024600023F0040313677B689B68002B15D0FEF7ED
:10247000FDFD38610AE0FEF7F9FD02463B69D31A1B
:1024800041F28832934201D9032399E04E4B1B6FEE
:1024900003F00203002BEED014E0FEF7E7FD3861F5
:1024A0000AE0FEF7E3FD02463B69D31A41F28832A7
:1024B000934201D9032383E0434B1B6F03F00203D4
:1024C000002BEED1FB7D012B05D13F4B1B6C3E4A0F
:1024D00023F0805313647B689B69002B6FD03A4BC9
:1024E0009B6803F00C03082B67D07B689B69022B69
:1024F00049D1354B1B68344A23F080731360FEF7D3
:10250000B5FD386108E0FEF7B1FD02463B69D31A1C
:10251000022B01D9032353E02B4B1B6803F00073FC
:10252000002BF0D17B68DA697B681B6A1A437B68F1
:102530005B6A9B011A437B689B6A5B08013B1B0437
:102540001A437B68DB6A1B0613431F4A43F00053A0
:1025500053601D4B1B681C4A43F080731360FEF7E9
:1025600085FD386108E0FEF781FD02463B69D31A1C
:10257000022B01D9032323E0134B1B6803F00073E4
:10258000002BF0D01BE0104B1B680F4A23F0807328
:102590001360FEF76BFD386108E0FEF767FD024649
:1025A0003B69D31A022B01D9032309E0064B1B68B0
:1025B00003F00073002BF0D101E0012300E00023C1
:1025C00018461837BD4680BD0038024000700040F4
:1025D00080B584B000AF786039600023FB607B6811
:1025E000002B01D10123CEE0694B1B6803F00F03E0
:1025F0003A689A4210D9664B1B6823F00F0264496F
:102600003B6813430B60624B1B6803F00F033A688F
:102610009A4201D00123B6E07B681B6803F00203F5
:10262000002B20D07B681B6803F00403002B05D02F
:10263000584B9B68574A43F4E05393607B681B6890
:1026400003F00803002B05D0524B9B68514A43F41A
:10265000604393604F4B9B6823F0F0027B689B685C
:102660004C4913438B607B681B6803F00103002B0C
:1026700040D07B685B68012B07D1464B1B6803F495
:102680000033002B15D101237DE07B685B68022BB2
:1026900007D1404B1B6803F00073002B09D10123C5
:1026A00071E03C4B1B6803F00203002B01D10123B6
:1026B00069E0384B9B6823F003027B685B6835490F
:1026C00013438B60FEF7D2FCF8600AE0FEF7CEFC05
:1026D0000246FB68D31A41F28832934201D90323A0
:1026E00051E02C4B9B6803F00C027B685B689B00FD
:1026F0009A42EBD1264B1B6803F00F033A689A42CB
:1027000010D2234B1B6823F00F0221493B6813436F
:102710000B601F4B1B6803F00F033A689A4201D00D
:10272000012330E07B681B6803F00403002B08D012
:10273000184B9B6823F4E0527B68DB681549134310
:102740008B607B681B6803F00803002B09D0114BDA
:102750009B6823F460427B681B69DB000D491343CF
:102760008B6000F01DF801460A4B9B681B0903F0C3
:102770000F03094AD35C21FA03F3084A13600020CF
:10278000FEF730FC002318461037BD4680BD00BF61
:10279000003C024000380240C09A000808000020B7
:1027A000F0B585B000AF00237B600023FB60002301
:1027B0003B600023BB60634B9B6803F00C03042B5E
:1027C00007D0082B08D0002B40F0B4805E4BBB60D4
:1027D000B3E05E4BBB60B0E05A4B5B6803F03F0375
:1027E0007B60584B5B6803F48003002B4AD0554B49
:1027F0005B689B094FF0000440F2FF114FF00002AC
:1028000003EA010504EA0206294632464FF00003B6
:102810004FF00004540144EAD1644B0119462246AA
:10282000491B62EB06024FF000034FF000049401D5
:1028300044EA91648B015B1A64EB02044FF00001DF
:102840004FF00002E20042EA5372D9000B461446F0
:102850005B1944EB06044FF000014FF000026202E6
:1028600042EAD35259020B461446184621467B6869
:102870004FF000041A462346FEF726FA03460C469C
:10288000FB6049E02F4B5B689B094FF0000440F26E
:10289000FF114FF0000203EA010504EA020629468F
:1028A00032464FF000034FF00004540144EAD16473
:1028B0004B0119462246491B62EB06024FF000030A
:1028C0004FF00004940144EA91648B015B1A64EBBD
:1028D00002044FF000014FF00002E20042EA53729E
:1028E000D9000B4614465B1944EB06044FF0000177
:1028F0004FF00002A20242EA935299020B4614469C
:10290000184621467B684FF000041A462346FEF71E
:10291000DBF903460C46FB600A4B5B681B0C03F0BB
:10292000030301335B003B60FA683B68B2FBF3F3DF
:10293000BB6002E0044BBB6000BFBB6818461437A5
:10294000BD46F0BD003802400024F40000127A00B9
:1029500080B400AF034B1B681846BD465DF8047B8E
:10296000704700BF0800002080B500AFFFF7F0FF00
:102970000146054B9B689B0A03F00703034AD35C9F
:1029800021FA03F3184680BD00380240D09A0008AF
:1029900080B500AFFFF7DCFF0146054B9B685B0B82
:1029A00003F00703034AD35C21FA03F3184680BD02
:1029B00000380240D09A000880B588B000AF786037
:1029C00000237B6100233B610023FB600023FB614C
:1029D0000023BB617B681B6803F00103002B12D04E
:1029E000694B9B68684A23F400039360664B9A68BE
:1029F0007B685B6B644913438B607B685B6B002B6C
:102A000001D10123FB617B681B6803F40023002BC9
:102A100017D05D4BD3F88C3023F440127B68DB6B0E
:102A200059491343C1F88C307B68DB6BB3F5801FC9
:102A300001D10123FB617B68DB6B002B01D10123FA
:102A4000BB617B681B6803F48013002B17D04E4BCF
:102A5000D3F88C3023F440027B681B6C4A49134343
:102A6000C1F88C307B681B6CB3F5800F01D101235A
:102A7000FB617B681B6C002B01D10123BB617B6870
:102A80001B6803F08073002B01D00123FB617B687E
:102A90001B6803F02003002B00F08B803A4B1B6C6B
:102AA000394A43F080531364374B1B6C03F0805357
:102AB000BB60BB68354B1B68344A43F480731360BA
:102AC000FEF7D4FA786108E0FEF7D0FA02467B6997
:102AD000D31A642B01D9032355E32C4B1B6803F451
:102AE0008073002BF0D0284B1B6F03F440733B61C5
:102AF0003B69002B35D07B681B6B03F440733A694C
:102B00009A422ED0204B1B6F23F440733B611E4B27
:102B10001B6F1D4A43F4803313671B4B1B6F1A4A0C
:102B200023F480331367184A3B691367164B1B6FF6
:102B300003F00103012B14D1FEF798FA78610AE043
:102B4000FEF794FA02467B69D31A41F28832934227
:102B500001D9032317E30C4B1B6F03F00203002B77
:102B6000EED07B681B6B03F44073B3F5407F11D14B
:102B7000054B9B6823F4F8127B68196B044B0B40E0
:102B8000014913438B600BE00038024000700040A5
:102B9000FFFCFF0FB04B9B68AF4A23F4F813936020
:102BA000AD4B1A6F7B681B6BC3F30B03AA4913432E
:102BB0000B677B681B6803F01003002B10D0A64B3B
:102BC000D3F88C30A44A23F08073C2F88C30A24B27
:102BD000D3F88C207B689B6B9F491343C1F88C30E2
:102BE0007B681B6803F48043002B0AD09A4BD3F810
:102BF000903023F440327B685B6E97491343C1F8F1
:102C000090307B681B6803F40043002B0AD0924B82
:102C1000D3F8903023F440227B689B6E8E49134397
:102C2000C1F890307B681B6803F48033002B0AD016
:102C3000894BD3F8903023F440127B68DB6E8649D1
:102C40001343C1F890307B681B6803F40033002BFA
:102C50000AD0814BD3F8903023F440027B681B6F7D
:102C60007D491343C1F890307B681B6803F0400333
:102C7000002B0AD0784BD3F8903023F003027B6806
:102C80005B6C75491343C1F890307B681B6803F097
:102C90008003002B0AD0704BD3F8903023F00C0245
:102CA0007B689B6C6C491343C1F890307B681B6850
:102CB00003F48073002B0AD0674BD3F8903023F0D5
:102CC00030027B68DB6C64491343C1F890307B6849
:102CD0001B6803F40073002B0AD05F4BD3F89030CD
:102CE00023F0C0027B681B6D5B491343C1F8903031
:102CF0007B681B6803F48063002B0AD0564BD3F823
:102D0000903023F440727B685B6D53491343C1F8E4
:102D100090307B681B6803F40063002B0AD04E4B95
:102D2000D3F8903023F440627B689B6D4A4913438B
:102D3000C1F890307B681B6803F48053002B0AD0E5
:102D4000454BD3F8903023F440527B68DB6D424909
:102D50001343C1F890307B681B6803F40053002BC9
:102D60000AD03D4BD3F8903023F440427B681B6E71
:102D700039491343C1F890307B681B6803F4800322
:102D8000002B0AD0344BD3F8903023F080627B685C
:102D90009B6F31491343C1F890307B681B6803F483
:102DA0000013002B11D02C4BD3F8903023F000628D
:102DB0007B68DB6F28491343C1F890307B68DB6F79
:102DC000B3F1006F01D10123BB617B681B6803F085
:102DD0000803002B01D00123BB617B681B6803F44F
:102DE0008023002B0AD01C4BD3F8903023F0407284
:102DF0007B685B6F18491343C1F890307B681B6890
:102E000003F40003002B0BD0134BD3F8903023F0C6
:102E100080527B68D3F880300F491343C1F890305B
:102E2000FB69012B05D07B681B68B3F1007F40F084
:102E3000D880094B1B68084A23F080631360FEF7B3
:102E400015F978610AE0FEF711F902467B69D31A99
:102E5000642B03D9032396E1003802406C4B1B68B6
:102E600003F00063002BEED17B681B6803F00103C5
:102E7000002B21D07B685B6B002B1DD1644BD3F8FA
:102E800084301B0C03F003033B61614BD3F88430A7
:102E90001B0E03F00F03FB607B685B689A013B69C4
:102EA0001B041A43FB681B061A437B689B681B07BD
:102EB00057491343C1F884307B681B6803F400232F
:102EC000002B04D07B68DB6BB3F5801F0AD07B68D6
:102ED0001B6803F48013002B2ED07B681B6CB3F5AA
:102EE000800F29D14A4BD3F884301B0C03F0030325
:102EF0003B61474BD3F884301B0F03F00703FB60A3
:102F00007B685B689A013B691B041A437B68DB683A
:102F10001B061A43FB681B073D491343C1F8843065
:102F20003B4BD3F88C3023F01F027B685B6A013B7C
:102F300037491343C1F88C307B681B6803F08073FA
:102F4000002B1DD0324BD3F884301B0E03F00F033F
:102F50003B612F4BD3F884301B0F03F00703FB605A
:102F60007B685B689A017B681B691B041A433B6999
:102F70001B061A43FB681B0725491343C1F884301D
:102F80007B681B6803F00073002B11D07B685B68C3
:102F90009A017B681B691B041A437B68DB681B066C
:102FA0001A437B689B681B0719491343C1F8843097
:102FB000174B1B68164A43F080631360FEF756F800
:102FC000786108E0FEF752F802467B69D31A642B59
:102FD00001D90323D7E00E4B1B6803F00063002BDD
:102FE000F0D0BB69012B40F0CD80094B1B68084A2B
:102FF00023F080531360FEF739F878610AE0FEF79A
:1030000035F802467B69D31A642B03D90323BAE04F
:10301000003802405E4B1B6803F00053B3F1005FC1
:10302000EDD07B681B6803F40023002B03D07B6882
:10303000DB6B002B09D07B681B6803F48013002B2B
:103040002ED07B681B6C002B2AD1514BD3F88830D3
:103050001B0C03F003033B614D4BD3F888301B0F6F
:1030600003F00703FB607B685B699A013B691B0403
:103070001A437B689B691B061A43FB681B0744497C
:103080001343C1F88830424BD3F88C3023F4F85204
:103090007B689B6A013B1B023D491343C1F88C309E
:1030A0007B681B6803F40013002B22D07B68DB6F66
:1030B000B3F1006F1DD1364BD3F888301B0E03F0EF
:1030C0000F033B61324BD3F888301B0F03F007032B
:1030D000FB607B685B699A017B681B6A1B041A436F
:1030E0003B691B061A43FB681B0729491343C1F8B8
:1030F00088307B681B6803F00803002B28D0244B22
:10310000D3F888301B0E03F00F033B61204BD3F83C
:1031100088301B0C03F00303FB607B685B699A013A
:10312000FB681B041A433B691B061A437B68DB6977
:103130001B0717491343C1F88830154BD3F88C305F
:1031400023F440327B68DB6A11491343C1F88C30A9
:103150000F4B1B680E4A43F080531360FDF786FF48
:10316000786108E0FDF782FF02467B69D31A642B81
:1031700001D9032307E0064B1B6803F00053B3F1AA
:10318000005FEFD1002318462037BD4680BD00BF49
:103190000038024080B582B000AF78607B68002BB9
:1031A00001D101231DE07B6893F83D30DBB2002B99
:1031B00006D17B68002283F83C20786802F0C2F9CF
:1031C0007B68022283F83D207B681A687B680433A1
:1031D0001946104600F054FA7B68012283F83D201E
:1031E000002318460837BD4680BD80B582B000AFC9
:1031F00078607B68002B01D101231DE07B6893F888
:103200003D30DBB2002B06D17B68002283F83C20E6
:10321000786800F015F87B68022283F83D207B680F
:103220001A687B6804331946104600F029FA7B6857
:10323000012283F83D20002318460837BD4680BD93
:1032400080B483B000AF786000BF0C37BD465DF836
:10325000047B704780B584B000AF786039607B68CC
:103260001B6801223968184600F0A2FD7B681B68C4
:10327000174A934204D07B681B68164A934201D1D7
:10328000012300E00023002B07D07B681B685A6CE9
:103290007B681B6842F400425A647B681B689A682A
:1032A0000D4B1340FB60FB68062B0BD0FB68B3F59E
:1032B000803F07D07B681B681A687B681B6842F0F8
:1032C00001021A60002318461037BD4680BD00BFBA
:1032D00000000140000401400700010080B584B0F7
:1032E00000AFF860B9607A60FB6893F83C30012B5E
:1032F00001D1022305E1FB68012283F83C20FB6831
:10330000022283F83D207B68142B00F2F08001A29A
:1033100052F823F069330008EF340008EF34000856
:10332000EF340008A9330008EF340008EF34000838
:10333000EF340008EB330008EF340008EF340008E6
:10334000EF3400082B340008EF340008EF34000895
:10335000EF3400086D340008EF340008EF34000843
:10336000EF340008AD340008FB681B68B9681846E4
:1033700000F026FAFB681B689A69FB681B6842F03C
:1033800008029A61FB681B689A69FB681B6822F057
:1033900004029A61FB681B689969BB681A69FB683B
:1033A0001B680A439A61A3E0FB681B68B96818466A
:1033B00000F078FAFB681B689A69FB681B6842F4A6
:1033C00000629A61FB681B689A69FB681B6822F4BB
:1033D00080629A61FB681B689969BB681B691A0265
:1033E000FB681B680A439A6182E0FB681B68B96846
:1033F000184600F0CFFAFB681B68DA69FB681B68A7
:1034000042F00802DA61FB681B68DA69FB681B6836
:1034100022F00402DA61FB681B68D969BB681A698B
:10342000FB681B680A43DA6162E0FB681B68B968E5
:10343000184600F025FBFB681B68DA69FB681B680F
:1034400042F40062DA61FB681B68DA69FB681B689A
:1034500022F48062DA61FB681B68D969BB681B696A
:103460001A02FB681B680A43DA6141E0FB681B68CB
:10347000B968184600F05CFBFB681B685A6DFB6876
:103480001B6842F008025A65FB681B685A6DFB68AE
:103490001B6822F004025A65FB681B68596DBB6803
:1034A0001A69FB681B680A435A6521E0FB681B68C0
:1034B000B968184600F08EFBFB681B685A6DFB6804
:1034C0001B6842F400625A65FB681B685A6DFB6812
:1034D0001B6822F480625A65FB681B68596DBB68E3
:1034E0001B691A02FB681B680A435A6500E000BFAB
:1034F000FB68012283F83D20FB68002283F83C2012
:10350000002318461037BD4680BD00BF80B584B08B
:1035100000AF786039607B6893F83C30012B01D1B3
:103520000223A6E07B68012283F83C207B6802220C
:1035300083F83D207B681B689B68FB60FA684F4BF3
:103540001340FB60FB6823F47F43FB607B681B68D0
:10355000FA689A603B681B68402B67D0402B0BD8F9
:10356000102B73D0102B02D8002B6FD078E0202BBB
:103570006CD0302B6AD073E0702B0DD0702B04D838
:10358000502B33D0602B41D06AE0B3F5805F66D01A
:10359000B3F5005F17D063E07B6818683B689968F3
:1035A0003B685A683B68DB6800F0E2FB7B681B689D
:1035B0009B68FB60FB6843F07703FB607B681B68DC
:1035C000FA689A604CE07B6818683B6899683B68C9
:1035D0005A683B68DB6800F0CBFB7B681B689A6825
:1035E0007B681B6842F480429A6039E07B68186807
:1035F0003B6859683B68DB681A4600F03FFB7B6814
:103600001B685021184600F098FB29E07B68186879
:103610003B6859683B68DB681A4600F05EFB7B68D4
:103620001B686021184600F088FB19E07B68186869
:103630003B6859683B68DB681A4600F01FFB7B68F3
:103640001B684021184600F078FB09E07B681A6887
:103650003B681B681946104600F06FFB00E000BF96
:103660007B68012283F83D207B68002283F83C20A0
:10367000002318461037BD4680BD00BF88FFFEFFFF
:1036800080B485B000AF786039607B681B68FB60F0
:103690007B68404A934213D07B68B3F1804F0FD0D0
:1036A0007B683D4A93420BD07B683C4A934207D0EB
:1036B0007B683B4A934203D07B683A4A934208D1E5
:1036C000FB6823F07003FB603B685B68FA68134398
:1036D000FB607B682F4A93422BD07B68B3F1804F0D
:1036E00027D07B682C4A934223D07B682B4A934295
:1036F0001FD07B682A4A93421BD07B68294A934299
:1037000017D07B68284A934213D07B68274A93429C
:103710000FD07B68264A93420BD07B68254A9342A0
:1037200007D07B68244A934203D07B68234A9342A4
:1037300008D1FB6823F44073FB603B68DB68FA68E0
:103740001343FB60FB6823F080023B685B69134313
:10375000FB607B68FA681A603B689A687B68DA628B
:103760003B681A687B689A627B680A4A934203D076
:103770007B680C4A934203D13B681A697B681A63E1
:103780007B6801225A6100BF1437BD465DF8047B97
:10379000704700BF000001400004004000080040E6
:1037A000000C004000040140004001400044014082
:1037B0000048014000180040001C0040002000406C
:1037C00080B487B000AF786039607B681B6A23F0F3
:1037D00001027B681A627B681B6A7B617B685B689D
:1037E0003B617B689B69FB60FA682B4B1340FB6075
:1037F000FB6823F00303FB603B681B68FA68134314
:10380000FB607B6923F002037B613B689B687A69FC
:1038100013437B617B68214A934203D07B68204A33
:1038200093420CD17B6923F008037B613B68DB6822
:103830007A6913437B617B6923F004037B617B68B6
:10384000164A934203D07B68154A934211D13B69D3
:1038500023F480733B613B6923F400733B613B6855
:103860005B693A6913433B613B689B693A6913435F
:103870003B617B683A695A607B68FA689A613B6889
:103880005A687B685A637B687A691A6200BF1C3782
:10389000BD465DF8047B70478FFFFEFF00000140CE
:1038A0000004014080B487B000AF786039607B6865
:1038B0001B6A23F010027B681A627B681B6A7B61BB
:1038C0007B685B683B617B689B69FB60FA682E4B99
:1038D0001340FB60FB6823F44073FB603B681B688C
:1038E0001B02FA681343FB607B6923F020037B61B2
:1038F0003B689B681B017A6913437B617B68234AA1
:10390000934203D07B68224A93420DD17B6923F016
:1039100080037B613B68DB681B017A6913437B6131
:103920007B6923F040037B617B68184A934203D094
:103930007B68174A934213D13B6923F480633B6150
:103940003B6923F400633B613B685B699B003A6918
:1039500013433B613B689B699B003A6913433B619E
:103960007B683A695A607B68FA689A613B685A6872
:103970007B689A637B687A691A6200BF1C37BD4610
:103980005DF8047B704700BFFF8FFFFE0000014021
:103990000004014080B487B000AF786039607B6874
:1039A0001B6A23F480727B681A627B681B6A7B61E6
:1039B0007B685B683B617B68DB69FB60FA682D4B69
:1039C0001340FB60FB6823F00303FB603B681B684C
:1039D000FA681343FB607B6923F400737B613B68E7
:1039E0009B681B027A6913437B617B68224A93427E
:1039F00003D07B68214A93420DD17B6923F4006395
:103A00007B613B68DB681B027A6913437B617B69DE
:103A100023F480637B617B68174A934203D07B6801
:103A2000164A934213D13B6923F480533B613B69AF
:103A300023F400533B613B685B691B013A69134304
:103A40003B613B689B691B013A6913433B617B689F
:103A50003A695A607B68FA68DA613B685A687B6841
:103A6000DA637B687A691A6200BF1C37BD465DF86D
:103A7000047B70478FFFFEFF0000014000040140FF
:103A800080B487B000AF786039607B681B6A23F42C
:103A900080527B681A627B681B6A3B617B685B684B
:103AA0007B617B68DB69FB60FA681E4B1340FB603F
:103AB000FB6823F44073FB603B681B681B02FA68D9
:103AC0001343FB603B6923F400533B613B689B68F5
:103AD0001B033A6913433B617B68134A934203D04B
:103AE0007B68124A934209D17B6923F480437B614E
:103AF0003B685B699B017A6913437B617B687A69E8
:103B00005A607B68FA68DA613B685A687B681A64B5
:103B10007B683A691A6200BF1C37BD465DF8047BBA
:103B2000704700BFFF8FFFFE00000140000401400E
:103B300080B487B000AF786039607B681B6A23F47B
:103B400080327B681A627B681B6A3B617B685B68BA
:103B50007B617B685B6DFB60FA681B4B1340FB600D
:103B60003B681B68FA681343FB603B6923F400332E
:103B70003B613B689B681B043A6913433B617B686C
:103B8000124A934203D07B68114A934209D17B6960
:103B900023F480337B613B685B691B027A691343C2
:103BA0007B617B687A695A607B68FA685A653B6812
:103BB0005A687B689A657B683A691A6200BF1C374D
:103BC000BD465DF8047B70478FFFFEFF000001409B
:103BD0000004014080B487B000AF786039607B6832
:103BE0001B6A23F480127B681A627B681B6A3B6144
:103BF0007B685B687B617B685B6DFB60FA681C4B74
:103C00001340FB603B681B681B02FA681343FB60B0
:103C10003B6923F400133B613B689B681B053A69D1
:103C200013433B617B68134A934203D07B68124A7B
:103C3000934209D17B6923F480237B613B685B69F4
:103C40009B027A6913437B617B687A695A607B685F
:103C5000FA685A653B685A687B68DA657B683A6936
:103C60001A6200BF1C37BD465DF8047B704700BF79
:103C7000FF8FFFFE000001400004014080B487B0C8
:103C800000AFF860B9607A60FB681B6A7B61FB6813
:103C90001B6A23F00102FB681A62FB689B693B61A7
:103CA0003B6923F0F0033B617B681B013A691343D6
:103CB0003B617B6923F00A037B617A69BB6813432C
:103CC0007B61FB683A699A61FB687A691A6200BF96
:103CD0001C37BD465DF8047B704780B487B000AFE9
:103CE000F860B9607A60FB681B6A23F01002FB6819
:103CF0001A62FB689B697B61FB681B6A3B617B699D
:103D000023F470437B617B681B037A6913437B61F7
:103D10003B6923F0A0033B61BB681B013A69134375
:103D20003B61FB687A699A61FB683A691A6200BF75
:103D30001C37BD465DF8047B704780B485B000AF8A
:103D4000786039607B689B68FB60FB6823F07003D8
:103D5000FB603A68FB68134343F00703FB607B6832
:103D6000FA689A6000BF1437BD465DF8047B70475F
:103D700080B487B000AFF860B9607A603B60FB68E0
:103D80009B687B617B6923F47F437B613B681A02FC
:103D90007B681A43BB6813437A6913437B61FB68F2
:103DA0007A699A6000BF1C37BD465DF8047B704796
:103DB00080B487B000AFF860B9607A60BB6803F088
:103DC0001F03012202FA03F37B61FB681A6A7B6915
:103DD000DB431A40FB681A62FB681A6ABB6803F08F
:103DE0001F03796801FA03F31A43FB681A6200BFE4
:103DF0001C37BD465DF8047B7047000080B485B079
:103E000000AF786039607B6893F83C30012B01D1BA
:103E1000022345E07B68012283F83C207B68022274
:103E200083F83D207B681B685B68FB607B681B68D0
:103E30009B68BB607B681B681C4A934204D07B680C
:103E40001B681B4A934208D1FB6823F47003FB6094
:103E50003B685B68FA681343FB60FB6823F0700300
:103E6000FB603B681B68FA681343FB60BB6823F088
:103E70008003BB603B689B68BA681343BB607B6888
:103E80001B68FA685A607B681B68BA689A607B682E
:103E9000012283F83D207B68002283F83C20002328
:103EA00018461437BD465DF8047B7047000001409A
:103EB0000004014080B582B000AF78607B68002BC1
:103EC00001D1012340E07B685B6F002B06D17B684A
:103ED000002283F87020786801F0B8FB7B68242208
:103EE0005A677B681B681A687B681B6822F00102AE
:103EF0001A60786800F090FA0346012B01D1012383
:103F000022E07B685B6A002B02D0786800F028FD15
:103F10007B681B685A687B681B6822F490425A6071
:103F20007B681B689A687B681B6822F02A029A608B
:103F30007B681B681A687B681B6842F001021A6084
:103F4000786800F0AFFD034618460837BD4680BDCF
:103F500080B58AB002AFF860B9603B601346FB8061
:103F6000FB685B6F202B7FD1BB68002B02D0FB88E6
:103F7000002B01D1012378E0FB6893F87030012B0E
:103F800001D1022371E0FB68012283F87020FB68F5
:103F90000022DA67FB6821225A67FDF767F878612B
:103FA000FB68FA88A3F85020FB68FA88A3F852202F
:103FB000FB689B68B3F5805F08D1FB681B69002B29
:103FC00004D10023FB61BB68BB6103E0BB68FB61FC
:103FD0000023BB612CE03B6800937B6900228021B9
:103FE000F86800F08EFD0346002B01D003233CE06F
:103FF000FB69002B0BD1BB691B881A46FB681B6849
:10400000C2F308029A62BB690233BB6107E0FB6935
:104010001A78FB681B689A62FB690133FB61FB68D5
:10402000B3F852309BB2013B9AB2FB68A3F852201E
:10403000FB68B3F852309BB2002BCCD13B680093A5
:104040007B6900224021F86800F05BFD0346002BED
:1040500001D0032309E0FB6820225A67FB68002295
:1040600083F87020002300E0022318462037BD4665
:1040700080BD000080B485B000AFF860B960134621
:10408000FB80FB689B6F202B40F08A80BB68002B75
:1040900002D0FB88002B01D1012382E0FB6893F85A
:1040A0007030012B01D102237BE0FB68012283F8F1
:1040B0007020FB68BA685A65FB68FA88A3F8582034
:1040C000FB68FA88A3F85A20FB6800221A66FB688E
:1040D0009B68B3F5805F0ED1FB681B69002B05D18F
:1040E000FB6840F2FF12A3F85C202DE0FB68FF2282
:1040F000A3F85C2028E0FB689B68002B0DD1FB68CF
:104100001B69002B04D1FB68FF22A3F85C201BE095
:10411000FB687F22A3F85C2016E0FB689B68B3F184
:10412000805F0DD1FB681B69002B04D1FB687F22E7
:10413000A3F85C2008E0FB683F22A3F85C2003E0C2
:10414000FB680022A3F85C20FB680022DA67FB68AA
:1041500022229A67FB681B689A68FB681B6842F01A
:1041600001029A60FB689B68B3F5805F07D1FB682A
:104170001B69002B03D1FB680D4A1A6602E0FB683D
:104180000C4A1A66FB68002283F87020FB681B68E3
:104190001A68FB681B6842F490721A60002300E002
:1041A000022318461437BD465DF8047B704700BFF4
:1041B000D74C0008314C000880B588B000AF78605B
:1041C0007B681B68DB69FB617B681B681B68BB61E4
:1041D0007B681B689B687B61FB6903F00F033B6195
:1041E0003B69002B13D1FB6903F02003002B0ED099
:1041F000BB6903F02003002B09D07B681B6E002BEA
:1042000000F0EB807B681B6E78689847E5E03B69BF
:10421000002B00F0C0807B6903F00103002B05D167
:10422000BB6903F49073002B00F0B580FB6903F0C9
:104230000103002B0ED0BB6903F48073002B09D05F
:104240007B681B6801221A627B68DB6F43F0010206
:104250007B68DA67FB6903F00203002B0ED07B69F1
:1042600003F00103002B09D07B681B6802221A624D
:104270007B68DB6F43F004027B68DA67FB6903F05D
:104280000403002B0ED07B6903F00103002B09D03F
:104290007B681B6804221A627B68DB6F43F00202B2
:1042A0007B68DA67FB6903F00803002B13D0BB6956
:1042B00003F02003002B04D17B6903F00103002BE2
:1042C00009D07B681B6808221A627B68DB6F43F0A9
:1042D00008027B68DA677B68DB6F002B7FD0FB69A5
:1042E00003F02003002B0CD0BB6903F02003002B4C
:1042F00007D07B681B6E002B03D07B681B6E786831
:1043000098477B68DB6FFB607B681B689B6803F0EA
:104310004003402B04D0FB6803F00803002B31D08E
:10432000786800F036FC7B681B689B6803F04003EC
:10433000402B23D17B681B689A687B681B6822F03E
:1043400040029A607B68DB6E002B13D07B68DB6ECB
:10435000264A1A657B68DB6E1846FCF7C6FF0346E3
:10436000002B16D07B68DB6E1B6D7A68D26E104610
:1043700098470EE0786800F045F80AE0786800F0A9
:1043800041F806E0786800F03DF87B680022DA67C3
:1043900025E000BF23E0FB6903F08003002B0DD074
:1043A000BB6903F08003002B08D07B685B6E002B99
:1043B00017D07B685B6E7868984712E0FB6903F062
:1043C0004003002B0ED0BB6903F04003002B09D043
:1043D000786800F014FC00BF04E000BF02E000BFFA
:1043E00000E000BF2037BD4680BD00BFD34B0008B2
:1043F00080B483B000AF786000BF0C37BD465DF875
:10440000047B704780B483B000AF786000BF0C3786
:10441000BD465DF8047B704780B588B000AF78601A
:104420000023BB610023FB757B689A687B681B696E
:104430001A437B685B691A437B68DB6913433B6102
:104440007B681B681A68B14B13407A681268396937
:104450000B4313607B681B685B6823F440517B68E7
:10446000DA687B681B680A435A607B689B693B611A
:104470007B681B6A3A6913433B617B681B689B68D6
:1044800023F430617B681B683A690A439A607B6851
:104490001B689F4A934221D19E4BD3F8903003F082
:1044A0000303032B16D801A252F823F0BD440008E1
:1044B000C9440008C3440008CF4400080123FB7727
:1044C00051E10223FB774EE10423FB774BE1082304
:1044D000FB7748E11023FB7700BF44E17B681B6852
:1044E0008D4A934234D18B4BD3F8903003F00C03B8
:1044F0000C2B29D801A252F823F000BF3145000847
:104500004945000849450008494500083D4500085F
:104510004945000849450008494500083745000855
:104520004945000849450008494500084345000839
:104530000023FB7717E10223FB7714E10423FB77C9
:1045400011E10823FB770EE11023FB7700BF0AE19E
:104550007B681B68714A934220D16E4BD3F8903030
:1045600003F03003102B0FD0102B02D8002B05D0F6
:1045700010E0202B05D0302B09D00BE00023FB7777
:10458000F1E00223FB77EEE00423FB77EBE0082366
:10459000FB77E8E01023FB7700BFE4E07B681B6853
:1045A0005F4A934220D15B4BD3F8903003F0C003B5
:1045B000402B0FD0402B02D8002B05D010E0802BD1
:1045C00005D0C02B09D00BE00023FB77CBE0022302
:1045D000FB77C8E00423FB77C5E00823FB77C2E044
:1045E0001023FB7700BFBEE07B681B684D4A9342F7
:1045F00024D1484BD3F8903003F44073B3F5807F57
:1046000012D0B3F5807F02D8002B07D012E0B3F5AB
:10461000007F06D0B3F5407F09D00BE00023FB7785
:10462000A1E00223FB779EE00423FB779BE00823B5
:10463000FB7798E01023FB7700BF94E07B681B6852
:10464000394A934224D1334BD3F8903003F440637A
:10465000B3F5806F12D0B3F5806F02D8002B07D06E
:1046600012E0B3F5006F06D0B3F5406F09D00BE050
:104670000123FB7777E00223FB7774E00423FB77C9
:1046800071E00823FB776EE01023FB7700BF6AE040
:104690007B681B68254A934224D11E4BD3F8903087
:1046A00003F44053B3F5805F12D0B3F5805F02D8B6
:1046B000002B07D012E0B3F5005F06D0B3F5405FE2
:1046C00009D00BE00023FB774DE00223FB774AE0A3
:1046D0000423FB7747E00823FB7744E01023FB77B4
:1046E00000BF40E07B681B68114A934239D1094BF7
:1046F000D3F8903003F44043B3F5804F27D0B3F59F
:10470000804F17D8002B1CD027E000BFF369FFEFC4
:1047100000100140003802400044004000480040C2
:10472000004C004000500040001401400078004060
:10473000007C0040B3F5004F06D0B3F5404F09D0E0
:104740000BE00023FB770EE00223FB770BE0042352
:10475000FB7708E00823FB7705E01023FB7700BF19
:1047600001E01023FB777B68DB69B3F5004F7CD158
:10477000FB7F082B59D801A252F823F0A14700086B
:10478000BF470008DD4700082B480008F547000830
:104790002B4800082B4800082B4800081348000845
:1047A000FEF7E2F803465A007B685B685B081A4430
:1047B0007B685B68B2FBF3F39BB2BB6138E0FEF74A
:1047C000E7F803465A007B685B685B081A447B681D
:1047D0005B68B2FBF3F39BB2BB6129E07B685B686B
:1047E0005A085D4B13447A685268B3FBF2F39BB2EC
:1047F000BB611DE0FDF7D4FF03465A007B685B6890
:104800005B081A447B685B68B2FBF3F39BB2BB6145
:104810000EE07B685B685B0803F580327B685B6851
:10482000B2FBF3F39BB2BB6102E00123FB7500BF57
:10483000BB690F2B16D9BB69B3F5803F12D2BB6998
:104840009BB223F00F03FB81BB695B089BB203F0B3
:1048500007039AB2FB891343FB817B681B68FA89C3
:10486000DA606EE00123FB756BE0FB7F082B57D805
:1048700001A252F823F000BF9D480008B948000883
:10488000D548000821490008ED48000821490008E2
:10489000214900082149000809490008FEF764F889
:1048A00002467B685B685B081A447B685B68B2FB06
:1048B000F3F39BB2BB6136E0FEF76AF802467B6811
:1048C0005B685B081A447B685B68B2FBF3F39BB2DE
:1048D000BB6128E07B685B685A08204B13447A6808
:1048E0005268B3FBF2F39BB2BB611CE0FDF758FFCB
:1048F00002467B685B685B081A447B685B68B2FBB6
:10490000F3F39BB2BB610EE07B685B685B0803F569
:1049100000427B685B68B2FBF3F39BB2BB6102E0D1
:104920000123FB7500BFBB690F2B08D9BB69B3F529
:10493000803F04D27B681B68BA69DA6001E001231A
:10494000FB757B6800221A667B6800225A66FB7D35
:1049500018462037BD4680BD0048E8010024F40019
:1049600080B483B000AF78607B685B6A03F00103BA
:10497000002B0AD07B681B685B6823F400317B68DE
:104980009A6A7B681B680A435A607B685B6A03F01B
:104990000203002B0AD07B681B685B6823F480311C
:1049A0007B68DA6A7B681B680A435A607B685B6ACB
:1049B00003F00403002B0AD07B681B685B6823F4B8
:1049C00080217B681A6B7B681B680A435A607B688E
:1049D0005B6A03F00803002B0AD07B681B685B68E6
:1049E00023F400417B685A6B7B681B680A435A605A
:1049F0007B685B6A03F01003002B0AD07B681B689E
:104A00009B6823F480517B689A6B7B681B680A4320
:104A10009A607B685B6A03F02003002B0AD07B68F6
:104A20001B689B6823F400517B68DA6B7B681B680A
:104A30000A439A607B685B6A03F04003002B1AD03C
:104A40007B681B685B6823F480117B681A6C7B6849
:104A50001B680A435A607B681B6CB3F5801F0AD140
:104A60007B681B685B6823F4C0017B685A6C7B68B9
:104A70001B680A435A607B685B6A03F08003002B63
:104A80000AD07B681B685B6823F400217B689A6C02
:104A90007B681B680A435A6000BF0C37BD465DF84F
:104AA000047B704780B586B002AF78607B680022D7
:104AB000DA67FCF7DBFAF8607B681B681B6803F0B9
:104AC0000803082B0ED16FF07E430093FB68002291
:104AD0004FF40011786800F014F80346002B01D061
:104AE00003230AE07B6820225A677B6820229A67AA
:104AF0007B68002283F87020002318461037BD46DB
:104B000080BD80B584B000AFF860B9603B601346EB
:104B1000FB712AE0BB69B3F1FF3F26D0FCF7A6FA90
:104B200002463B68D31ABA699A4202D3BB69002B8A
:104B30001BD1FB681B681A68FB681B6822F4D072E3
:104B40001A60FB681B689A68FB681B6822F0010208
:104B50009A60FB6820225A67FB6820229A67FB68EC
:104B6000002283F8702003230FE0FB681B68DA69DA
:104B7000BB681340BA689A420CBF01230023DBB222
:104B80001A46FB799A42C5D0002318461037BD4615
:104B900080BD80B483B000AF78607B681B681A6802
:104BA0007B681B6822F490721A607B681B689A68A5
:104BB0007B681B6822F001029A607B6820229A675A
:104BC0007B6800221A6600BF0C37BD465DF8047B87
:104BD000704780B584B000AF78607B689B6BFB60EA
:104BE000FB680022A3F85A20FB680022A3F8522099
:104BF000F868FFF707FC00BF1037BD4680BD80B5E1
:104C000082B000AF78607B681B681A687B681B689D
:104C100022F040021A607B6820225A677B680022DB
:104C20005A667868FFF7E4FB00BF0837BD4680BDD1
:104C300080B584B000AF78607B68B3F85C30FB81EE
:104C40007B689B6F222B3AD17B681B685B6ABB81B8
:104C5000BB89D9B2FB89DAB27B685B6D0A40D2B2FC
:104C60001A707B685B6D5A1C7B685A657B68B3F869
:104C70005A309BB2013B9AB27B68A3F85A207B68FA
:104C8000B3F85A309BB2002B21D17B681B681A689D
:104C90007B681B6822F490721A607B681B689A68B4
:104CA0007B681B6822F001029A607B6820229A6769
:104CB0007B6800221A66786800F0BAFA07E07B6821
:104CC0001B689A697B681B6842F008029A6100BF02
:104CD0001037BD4680BD80B584B000AF78607B687A
:104CE000B3F85C30FB817B689B6F222B3AD17B68E9
:104CF0001B685B6ABB817B685B6DBB60BA89FB89A3
:104D000013409AB2BB681A807B685B6D9A1C7B6803
:104D10005A657B68B3F85A309BB2013B9AB27B6804
:104D2000A3F85A207B68B3F85A309BB2002B21D1EC
:104D30007B681B681A687B681B6822F490721A6093
:104D40007B681B689A687B681B6822F001029A6086
:104D50007B6820229A677B6800221A66786800F0D8
:104D600067FA07E07B681B689A697B681B6842F0FA
:104D700008029A6100BF1037BD4680BD80B584B07F
:104D800002AF0123FB71FA1D4FF6FF73009301235D
:104D900046210948FCF73AFD1023FB71FA1D4FF636
:104DA000FF730093012346210348FCF72FFD00BF4A
:104DB0000837BD4680BD00BF0C02002090B585B00D
:104DC00002AF4FF000037B603A464FF6FF7300934B
:104DD000022346210F48FCF70DFE3B781B027A7830
:104DE00013431846FBF7BEFB4FF033320A4BFBF779
:104DF0004DFD03460C4618462146FBF715FF0346BA
:104E00007B607B6807EE903AB0EE670A0C37BD46D0
:104E100090BD00BF0C0200203333F33F80B58AB051
:104E200000AF07F1140300221A605A609A60DA603A
:104E30001A61314B1B6B304A43F0040313632E4B52
:104E40001B6B03F004033B613B692B4B1B6B2A4A32
:104E500043F080031363284B1B6B03F08003FB605C
:104E6000FB68254B1B6B244A43F001031363224B61
:104E70001B6B03F00103BB60BB681F4B1B6B1E4A1F
:104E800043F0020313631C4B1B6B03F002037B60B4
:104E90007B68194B1B6B184A43F008031363164BCE
:104EA0001B6B03F008033B603B68002244F2810166
:104EB0001248FCF7E7FB4FF400537B610023BB6112
:104EC0000023FB6107F1140319460D48FCF730FA83
:104ED00044F281037B610123BB610023FB6100235A
:104EE0003B6207F1140319460448FCF721FA00BF9E
:104EF0002837BD4680BD00BF003802400004024094
:104F00000008024080B500AF1B4B1C4A1A601A4BC8
:104F10001B4A5A60184B00229A60174B0122DA6034
:104F2000154B00221A61144B00225A61124B0022C9
:104F30009A61114B0022DA610F4B00221A620E486F
:104F4000FCF7D4FB0346002B01D000F0A9F90021A7
:104F50000948FDF725F80346002B01D000F0A0F921
:104F600000210548FDF767F80346002B01D000F04B
:104F700097F900BF80BD00BF0C0200200054004024
:104F8000D28C800080B58AB000AF786007F114033E
:104F900000221A605A609A60DA601A617B681B68A6
:104FA000174A934228D1174B1B6B164A43F0020352
:104FB0001363144B1B6B03F002033B613B694FF41B
:104FC00040737B611223BB610123FB6103233B62BE
:104FD00004237B6207F1140319460B48FCF7A8F978
:104FE000084B1B6C074A43F400131364054B1B6CFE
:104FF00003F40013FB60FB6800BF2837BD4680BD8B
:1050000000540040003802400004024090B585B0D2
:1050100000AFFBF7D9FF00F07DF8FFF7FFFEFFF7C9
:1050200071FF00F0E3FA00F017FAFFF7A7FE0C217A
:105030002E48FEF70FF92D4B1B6800221A6401223F
:105040002B492C48FFF716F8FFF7B8FE87ED030A47
:10505000D7ED037AFCEEE77A17EE903ABB60F8687A
:10506000FBF792FA03460C461A4623462249234888
:1050700001F0D8F903469AB2214B1A80204B1A88C6
:105080004FF6FF731D491B48FEF762FF1C4B1B8840
:105090001A460021194800F079FB1A4B1B78002BA7
:1050A0001FD03B1D1A461849184801F0DBF97B68F0
:1050B000002B07D07A6813469B0013445B00013B2A
:1050C0001A4600E00022094B1B681A64104B0022AC
:1050D0001A70052200210D4800F058FB094B0022F0
:1050E0001A704FF47A70FBF7CDFFADE79402002001
:1050F000F8010020D4020020909A000858020020F5
:105100008A020020FA010020B09A00088C020020D8
:10511000F901002080B5B4B000AF07F1A003302240
:105120000021184600F032FB07F18C0300221A60C0
:105130005A609A60DA601A6107F10803842200213C
:10514000184600F023FBFCF7C3FF374B1B6C364AB5
:1051500043F080531364344B1B6C03F080537B602B
:105160007B68324B1B6823F44043304A43F480434E
:1051700013602E4B1B6803F440433B603B680123E4
:10518000C7F8A0304FF4A023C7F8A4300223C7F813
:10519000B8304FF48003C7F8BC300423C7F8C030E0
:1051A0004823C7F8C4300223C7F8C8300223C7F821
:1051B000CC3007F1A0031846FCF79AFF0346002BFA
:1051C00001D000F06DF80F23C7F88C300223C7F828
:1051D00090300023C7F894304FF48053C7F89830CC
:1051E0000023C7F89C3007F18C0302211846FDF715
:1051F000EFF90346002B01D000F052F84FF4824340
:10520000BB6000237B650023FB6607F1080318469B
:10521000FDF7D2FB0346002B01D000F041F800BFA0
:10522000D037BD4680BD00BF00380240007000404E
:1052300080B582B000AF7860144B1B78042B07D97F
:10524000124B00221A7005220021114800F09EFA2C
:105250000E4B1B781A460F4B19780D4B99540B4B7C
:105260001B780133022B02DD0B4B01221A70074B16
:105270001B780133DAB2054B1A7001220549074841
:10528000FEF7F8FE00BF0837BD4680BDF9010020DB
:105290008C020020F8010020FA010020D402002036
:1052A00080B500AF002201210B48FCF7EBF900228A
:1052B00080210948FCF7E6F900224FF480410648B6
:1052C000FCF7E0F94FF480410348FCF7F4F964205F
:1052D000FBF7D8FEF6E700BF0004024080B483B0BD
:1052E00000AF0F4B1B6C0E4A43F0805313640C4B02
:1052F0001B6C03F080537B607B68094B5B6C084A36
:1053000043F480435364064B5B6C03F480433B607F
:105310003B6800BF0C37BD465DF8047B704700BF9B
:105320000038024080B400AF00BFBD465DF8047B8A
:10533000704780B400AFFEE780B400AFFEE780B4F2
:1053400000AFFEE780B400AFFEE780B400AF00BF5F
:10535000BD465DF8047B704780B400AF00BFBD461A
:105360005DF8047B704780B400AF00BFBD465DF8B8
:10537000047B704780B500AFFBF764FE00BF80BDC3
:1053800080B500AF0248FEF717FF00BF80BD00BF29
:10539000D402002080B584B000AF7860114B1B6848
:1053A000002B02D10F4B104A1A600E4B1B68FB609A
:1053B0000C4B1A687B6813446A46934207D900F085
:1053C000BBF902460C2313604FF0FF3306E0054B98
:1053D0001A687B681344034A1360FB681846103749
:1053E000BD4680BDFC0100205803002080B400AF02
:1053F000154BD3F88830144A43F47003C2F8883050
:10540000124B1B68114A43F0010313600F4B00223B
:105410009A600E4B1A680D490D4B13400B600B4BF5
:105420000C4A5A60094B1B68084A23F48023136016
:10543000064B0022DA60044B4FF000629A6000BF16
:10544000BD465DF8047B704700ED00E00038024087
:10545000FFFFF6FE1030002480B58EB000AF07F1DC
:10546000280300221A605A609A60DA6007F11C0370
:1054700000221A605A609A603B4600221A605A6005
:105480009A60DA601A615A619A612D4B4FF080423E
:105490001A602B4B47225A60294B00229A60284BF6
:1054A00040F2E732DA60264B00221A61244B0022D8
:1054B0009A612348FDF76EFE0346002B01D0FFF7EB
:1054C000EFFE4FF48053BB6207F1280319461C48D6
:1054D000FEF71CF80346002B01D0FFF7E1FE184849
:1054E000FDF783FE0346002B01D0FFF7D9FE002312
:1054F000FB6100237B6207F11C0319461048FEF78D
:105500007DFC0346002B01D0FFF7CAFE60233B6001
:1055100000237B600023BB6000233B613B460C22E1
:1055200019460748FDF7DAFE0346002B01D0FFF7C6
:10553000B7FE034800F024F800BF3837BD4680BDF1
:105540009402002080B485B000AF78607B681B684F
:10555000B3F1804F0BD1094B1B6C084A43F0010398
:105560001364064B1B6C03F00103FB60FB6800BF78
:105570001437BD465DF8047B704700BF0038024019
:1055800080B588B000AF786007F10C0300221A6084
:105590005A609A60DA601A617B681B68B3F1804FC9
:1055A0001BD1104B1B6B0F4A43F0010313630D4BD0
:1055B0001B6B03F00103BB60BB680823FB60022385
:1055C0003B6100237B610023BB610123FB6107F189
:1055D0000C0319460448FBF7ABFE00BF2037BD465D
:1055E00080BD00BF003802400000024080B500AF1F
:1055F000144B154A1A60134B4FF416525A60114B54
:1056000000229A600F4B0022DA600E4B00221A61D2
:105610000C4B0C225A610B4B00229A61094B002261
:10562000DA61084B00221A62064B00225A620548D2
:10563000FEF740FC0346002B01D0FFF731FE00BF10
:1056400080BD00BFD40200200048004080B58AB071
:1056500000AF786007F1140300221A605A609A6064
:10566000DA601A617B681B681B4A934230D11B4B7E
:105670001B6C1A4A43F480231364184B1B6C03F40D
:1056800080233B613B69154B1B6B144A43F00803B5
:105690001363124B1B6B03F00803FB60FB684FF4B2
:1056A00040737B610223BB610023FB6103233B62E8
:1056B00007237B6207F1140319460948FBF738FEFC
:1056C000002200212720FBF7DAFD2720FBF7F3FD5E
:1056D00000BF2837BD4680BD00480040003802406A
:1056E000000C0240DFF834D0002103E00C4B5B5883
:1056F000435004310B480C4B42189A42F6D30B4AE4
:1057000002E0002342F8043B094B9A42F9D3FFF729
:105710006DFE00F017F8FFF779FC704700000520D8
:10572000149E000800000020DC010020DC010020A5
:1057300058030020FEE70000014B1868704700BFC7
:105740000C00002070B50D4E0D4CA41BA4100025BC
:10575000A54209D10B4E0C4C04F08CF9A41BA410EB
:105760000025A54205D170BD56F825309847013572
:10577000EEE756F8253098470135F2E70C9E000811
:105780000C9E00080C9E0008109E00080244034670
:10579000934200D1704703F8011BF9E72DE9FF4759
:1057A00055EC104B0D9FDDF830A0002D0E469146B4
:1057B0001946B8BF22462B4627F02007BBBF05F18C
:1057C00000431D4600232D23B8BF1446462F0B70FF
:1057D00004D0452F00D10136022100E0032103ABA4
:1057E000019302AB00933246534645EC104B01F057
:1057F000A3FD472F804602D119F0010F26D0462F76
:1058000008EB060911D198F80030302B0AD100229C
:10581000002320462946FBF777F918B9C6F101069F
:10582000CAF80060DAF800309944002200232046CC
:105830002946FBF769F938B93022039B4B4505D25D
:10584000591C03911A70F8E7CDF80C90039B0E9A3F
:10585000A3EB08034046136004B0BDE8F087F7B53A
:1058600000290446BABF49422D232B23092904F8F5
:10587000022B437020DD0DF107031F460A2691FB22
:10588000F6F506FB15113031092D03F8011C03F163
:10589000FF32294609DC3031023B02F8011CBB42D1
:1058A000224604D3101A03B0F0BD1346E7E713F8FD
:1058B000012B04F8012BF2E7302319448370021DF9
:1058C000C170EFE72DE9F04F8DB00C46DDF8588040
:1058D00016461F46054602F021FE0368049318464B
:1058E000FAF796FC00230A93D8F8003005900733A6
:1058F00023F0070303F1080294F818A0D4F800B0CD
:10590000C8F80020D3E90023C4E91223D4E912899E
:1059100029F000430793CDF818804FF0FF32A74BD2
:10592000DDE90601FBF722F970BB4FF0FF32A34B14
:10593000DDE90601FBF7FCF830BB002200234046FE
:105940004946FBF7EBF810B12D2384F843309C4A0D
:105950009C4BBAF1470F8CBF9046984603232BF01F
:105960000402236122604FF00009009733460BAA1E
:105970002146284600F0E6F9013040F08D804FF0D6
:10598000FF300DB0BDE8F08F42464B4640464946D9
:10599000FBF7ECF810B18C4A8C4BDAE761684B1CD2
:1059A0004BF480620AA83ED1062363600023CDE950
:1059B000020309AB009349EC108B0DF12303226025
:1059C000CDF804A061682846FFF7E8FE0AF0DF037F
:1059D000472B804609D1099BD81C02DB62689342A1
:1059E00047DDAAF1020A5FFA8AFABAF1650F09994E
:1059F00024D80139524604F150000991FFF72FFFD6
:105A00000A9A1318012A8146236102DC2268D10711
:105A100001D5013323619DF82330002BA5D02D2320
:105A200084F84330A1E7BAF1670F00F07781BAF14B
:105A3000470FBBD10029B9D10123B6E7BAF1660FF0
:105A400019D1002963680CDD216113B92268D207DE
:105A500002D501330B442361099BA3654FF0000974
:105A6000D9E713B92268D00701D50233F3E7012340
:105A7000F1E74FF0670ADDE90932934205DB22685E
:105A80002361D107E8D50133E5E7002BD4BFC3F18B
:105A9000020301231344DEE723685A0507D4236970
:105AA000424631462846B84701302BD167E7BAF164
:105AB000650F40F2DC8000220023D4E91201FBF7DD
:105AC00023F8002833D00123414A31462846B847FD
:105AD00001303FF454AFDDE909239A4202DB236829
